{
  "_format": "hh-sol-artifact-1",
  "contractName": "GameDirectory",
  "sourceName": "contracts/GameDirectory.sol",
  "abi": [
    {
      "inputs": [
        {
          "internalType": "address",
          "name": "_winDoge95Token",
          "type": "address"
        },
        {
          "internalType": "uint256",
          "name": "_listingFee",
          "type": "uint256"
        },
        {
          "internalType": "uint256",
          "name": "_minVotingThreshold",
          "type": "uint256"
        },
        {
          "internalType": "uint256",
          "name": "_approvalThreshold",
          "type": "uint256"
        }
      ],
      "stateMutability": "nonpayable",
      "type": "constructor"
    },
    {
      "inputs": [
        {
          "internalType": "address",
          "name": "owner",
          "type": "address"
        }
      ],
      "name": "OwnableInvalidOwner",
      "type": "error"
    },
    {
      "inputs": [
        {
          "internalType": "address",
          "name": "account",
          "type": "address"
        }
      ],
      "name": "OwnableUnauthorizedAccount",
      "type": "error"
    },
    {
      "anonymous": false,
      "inputs": [
        {
          "indexed": true,
          "internalType": "uint256",
          "name": "gameId",
          "type": "uint256"
        }
      ],
      "name": "GameApproved",
      "type": "event"
    },
    {
      "anonymous": false,
      "inputs": [
        {
          "indexed": true,
          "internalType": "uint256",
          "name": "gameId",
          "type": "uint256"
        },
        {
          "indexed": true,
          "internalType": "address",
          "name": "owner",
          "type": "address"
        }
      ],
      "name": "GameListed",
      "type": "event"
    },
    {
      "anonymous": false,
      "inputs": [
        {
          "indexed": true,
          "internalType": "uint256",
          "name": "gameId",
          "type": "uint256"
        }
      ],
      "name": "GameRejected",
      "type": "event"
    },
    {
      "anonymous": false,
      "inputs": [
        {
          "indexed": true,
          "internalType": "uint256",
          "name": "gameId",
          "type": "uint256"
        },
        {
          "indexed": true,
          "internalType": "address",
          "name": "voter",
          "type": "address"
        },
        {
          "indexed": false,
          "internalType": "bool",
          "name": "approved",
          "type": "bool"
        },
        {
          "indexed": false,
          "internalType": "uint256",
          "name": "weight",
          "type": "uint256"
        }
      ],
      "name": "GameVoted",
      "type": "event"
    },
    {
      "anonymous": false,
      "inputs": [
        {
          "indexed": true,
          "internalType": "address",
          "name": "previousOwner",
          "type": "address"
        },
        {
          "indexed": true,
          "internalType": "address",
          "name": "newOwner",
          "type": "address"
        }
      ],
      "name": "OwnershipTransferred",
      "type": "event"
    },
    {
      "inputs": [],
      "name": "approvalThreshold",
      "outputs": [
        {
          "internalType": "uint256",
          "name": "",
          "type": "uint256"
        }
      ],
      "stateMutability": "view",
      "type": "function"
    },
    {
      "inputs": [],
      "name": "approvalThresholdTokens",
      "outputs": [
        {
          "internalType": "uint256",
          "name": "",
          "type": "uint256"
        }
      ],
      "stateMutability": "view",
      "type": "function"
    },
    {
      "inputs": [
        {
          "internalType": "uint256[]",
          "name": "_gameIds",
          "type": "uint256[]"
        },
        {
          "internalType": "bool[]",
          "name": "_approves",
          "type": "bool[]"
        }
      ],
      "name": "batchVoteForGames",
      "outputs": [],
      "stateMutability": "nonpayable",
      "type": "function"
    },
    {
      "inputs": [
        {
          "internalType": "uint256",
          "name": "",
          "type": "uint256"
        }
      ],
      "name": "games",
      "outputs": [
        {
          "internalType": "string",
          "name": "title",
          "type": "string"
        },
        {
          "internalType": "string",
          "name": "description",
          "type": "string"
        },
        {
          "internalType": "string",
          "name": "category",
          "type": "string"
        },
        {
          "internalType": "string",
          "name": "imageUrl",
          "type": "string"
        },
        {
          "internalType": "string",
          "name": "gameUrl",
          "type": "string"
        },
        {
          "internalType": "address",
          "name": "owner",
          "type": "address"
        },
        {
          "internalType": "uint256",
          "name": "approvalVotes",
          "type": "uint256"
        },
        {
          "internalType": "uint256",
          "name": "rejectionVotes",
          "type": "uint256"
        },
        {
          "internalType": "uint256",
          "name": "totalVotes",
          "type": "uint256"
        },
        {
          "internalType": "bool",
          "name": "approved",
          "type": "bool"
        },
        {
          "internalType": "bool",
          "name": "rejected",
          "type": "bool"
        }
      ],
      "stateMutability": "view",
      "type": "function"
    },
    {
      "inputs": [],
      "name": "getAllGames",
      "outputs": [
        {
          "components": [
            {
              "internalType": "string",
              "name": "title",
              "type": "string"
            },
            {
              "internalType": "string",
              "name": "description",
              "type": "string"
            },
            {
              "internalType": "string",
              "name": "category",
              "type": "string"
            },
            {
              "internalType": "string",
              "name": "imageUrl",
              "type": "string"
            },
            {
              "internalType": "string",
              "name": "gameUrl",
              "type": "string"
            },
            {
              "internalType": "address",
              "name": "owner",
              "type": "address"
            },
            {
              "internalType": "uint256",
              "name": "approvalVotes",
              "type": "uint256"
            },
            {
              "internalType": "uint256",
              "name": "rejectionVotes",
              "type": "uint256"
            },
            {
              "internalType": "uint256",
              "name": "totalVotes",
              "type": "uint256"
            },
            {
              "internalType": "bool",
              "name": "approved",
              "type": "bool"
            },
            {
              "internalType": "bool",
              "name": "rejected",
              "type": "bool"
            }
          ],
          "internalType": "struct GameDirectory.Game[]",
          "name": "",
          "type": "tuple[]"
        }
      ],
      "stateMutability": "view",
      "type": "function"
    },
    {
      "inputs": [
        {
          "internalType": "uint256",
          "name": "_gameId",
          "type": "uint256"
        }
      ],
      "name": "getGame",
      "outputs": [
        {
          "components": [
            {
              "internalType": "string",
              "name": "title",
              "type": "string"
            },
            {
              "internalType": "string",
              "name": "description",
              "type": "string"
            },
            {
              "internalType": "string",
              "name": "category",
              "type": "string"
            },
            {
              "internalType": "string",
              "name": "imageUrl",
              "type": "string"
            },
            {
              "internalType": "string",
              "name": "gameUrl",
              "type": "string"
            },
            {
              "internalType": "address",
              "name": "owner",
              "type": "address"
            },
            {
              "internalType": "uint256",
              "name": "approvalVotes",
              "type": "uint256"
            },
            {
              "internalType": "uint256",
              "name": "rejectionVotes",
              "type": "uint256"
            },
            {
              "internalType": "uint256",
              "name": "totalVotes",
              "type": "uint256"
            },
            {
              "internalType": "bool",
              "name": "approved",
              "type": "bool"
            },
            {
              "internalType": "bool",
              "name": "rejected",
              "type": "bool"
            }
          ],
          "internalType": "struct GameDirectory.Game",
          "name": "",
          "type": "tuple"
        }
      ],
      "stateMutability": "view",
      "type": "function"
    },
    {
      "inputs": [],
      "name": "getGameCount",
      "outputs": [
        {
          "internalType": "uint256",
          "name": "",
          "type": "uint256"
        }
      ],
      "stateMutability": "view",
      "type": "function"
    },
    {
      "inputs": [
        {
          "internalType": "address",
          "name": "",
          "type": "address"
        },
        {
          "internalType": "uint256",
          "name": "",
          "type": "uint256"
        }
      ],
      "name": "hasVoted",
      "outputs": [
        {
          "internalType": "bool",
          "name": "",
          "type": "bool"
        }
      ],
      "stateMutability": "view",
      "type": "function"
    },
    {
      "inputs": [
        {
          "internalType": "string",
          "name": "_title",
          "type": "string"
        },
        {
          "internalType": "string",
          "name": "_description",
          "type": "string"
        },
        {
          "internalType": "string",
          "name": "_category",
          "type": "string"
        },
        {
          "internalType": "string",
          "name": "_imageUrl",
          "type": "string"
        },
        {
          "internalType": "string",
          "name": "_gameUrl",
          "type": "string"
        }
      ],
      "name": "listGame",
      "outputs": [],
      "stateMutability": "nonpayable",
      "type": "function"
    },
    {
      "inputs": [],
      "name": "listingFee",
      "outputs": [
        {
          "internalType": "uint256",
          "name": "",
          "type": "uint256"
        }
      ],
      "stateMutability": "view",
      "type": "function"
    },
    {
      "inputs": [],
      "name": "minVotingThreshold",
      "outputs": [
        {
          "internalType": "uint256",
          "name": "",
          "type": "uint256"
        }
      ],
      "stateMutability": "view",
      "type": "function"
    },
    {
      "inputs": [],
      "name": "minVotingThresholdTokens",
      "outputs": [
        {
          "internalType": "uint256",
          "name": "",
          "type": "uint256"
        }
      ],
      "stateMutability": "view",
      "type": "function"
    },
    {
      "inputs": [],
      "name": "owner",
      "outputs": [
        {
          "internalType": "address",
          "name": "",
          "type": "address"
        }
      ],
      "stateMutability": "view",
      "type": "function"
    },
    {
      "inputs": [],
      "name": "renounceOwnership",
      "outputs": [],
      "stateMutability": "nonpayable",
      "type": "function"
    },
    {
      "inputs": [
        {
          "internalType": "uint256",
          "name": "_newThreshold",
          "type": "uint256"
        }
      ],
      "name": "setApprovalThreshold",
      "outputs": [],
      "stateMutability": "nonpayable",
      "type": "function"
    },
    {
      "inputs": [
        {
          "internalType": "uint256",
          "name": "_newFee",
          "type": "uint256"
        }
      ],
      "name": "setListingFee",
      "outputs": [],
      "stateMutability": "nonpayable",
      "type": "function"
    },
    {
      "inputs": [
        {
          "internalType": "address",
          "name": "newOwner",
          "type": "address"
        }
      ],
      "name": "transferOwnership",
      "outputs": [],
      "stateMutability": "nonpayable",
      "type": "function"
    },
    {
      "inputs": [
        {
          "internalType": "uint256",
          "name": "_gameId",
          "type": "uint256"
        },
        {
          "internalType": "bool",
          "name": "_approve",
          "type": "bool"
        }
      ],
      "name": "voteForGame",
      "outputs": [],
      "stateMutability": "nonpayable",
      "type": "function"
    },
    {
      "inputs": [],
      "name": "winDoge95Token",
      "outputs": [
        {
          "internalType": "contract IWindoge95",
          "name": "",
          "type": "address"
        }
      ],
      "stateMutability": "view",
      "type": "function"
    }
  ],
  "bytecode": "0x60806040523480156200001157600080fd5b5060405162003ebf38038062003ebf833981810160405281019062000037919062000367565b33600073ffffffffffffffffffffffffffffffffffffffff168173ffffffffffffffffffffffffffffffffffffffff1603620000ad5760006040517f1e4fbdf7000000000000000000000000000000000000000000000000000000008152600401620000a49190620003ea565b60405180910390fd5b620000be81620001fe60201b60201c565b5083600160006101000a81548173ffffffffffffffffffffffffffffffffffffffff021916908373ffffffffffffffffffffffffffffffffffffffff1602179055508260028190555081600381905550806005819055506000600160009054906101000a900473ffffffffffffffffffffffffffffffffffffffff1673ffffffffffffffffffffffffffffffffffffffff166318160ddd6040518163ffffffff1660e01b8152600401602060405180830381865afa15801562000185573d6000803e3d6000fd5b505050506040513d601f19601f82011682018060405250810190620001ab919062000407565b905060648382620001bd919062000468565b620001c99190620004e2565b600481905550606482600454620001e1919062000468565b620001ed9190620004e2565b60068190555050505050506200051a565b60008060009054906101000a900473ffffffffffffffffffffffffffffffffffffffff169050816000806101000a81548173ffffffffffffffffffffffffffffffffffffffff021916908373ffffffffffffffffffffffffffffffffffffffff1602179055508173ffffffffffffffffffffffffffffffffffffffff168173ffffffffffffffffffffffffffffffffffffffff167f8be0079c531659141344cd1fd0a4f28419497f9722a3daafe3b4186f6b6457e060405160405180910390a35050565b600080fd5b600073ffffffffffffffffffffffffffffffffffffffff82169050919050565b6000620002f482620002c7565b9050919050565b6200030681620002e7565b81146200031257600080fd5b50565b6000815190506200032681620002fb565b92915050565b6000819050919050565b62000341816200032c565b81146200034d57600080fd5b50565b600081519050620003618162000336565b92915050565b60008060008060808587031215620003845762000383620002c2565b5b6000620003948782880162000315565b9450506020620003a78782880162000350565b9350506040620003ba8782880162000350565b9250506060620003cd8782880162000350565b91505092959194509250565b620003e481620002e7565b82525050565b6000602082019050620004016000830184620003d9565b92915050565b60006020828403121562000420576200041f620002c2565b5b6000620004308482850162000350565b91505092915050565b7f4e487b7100000000000000000000000000000000000000000000000000000000600052601160045260246000fd5b600062000475826200032c565b915062000482836200032c565b925082820262000492816200032c565b91508282048414831517620004ac57620004ab62000439565b5b5092915050565b7f4e487b7100000000000000000000000000000000000000000000000000000000600052601260045260246000fd5b6000620004ef826200032c565b9150620004fc836200032c565b9250826200050f576200050e620004b3565b5b828204905092915050565b613995806200052a6000396000f3fe608060405234801561001057600080fd5b50600436106101215760003560e01c80637d0eef61116100ad578063b9e5c37d11610071578063b9e5c37d146102ee578063db1c45f91461030a578063ddb9701314610328578063e87c0ee614610346578063f2fde38b1461036457610121565b80637d0eef611461024a5780638da5cb5b146102685780639b848f3614610286578063a0016b8c146102a2578063a2f77bcc146102be57610121565b80633865ebc8116100f45780633865ebc8146101b857806342545825146101d65780636a1b7ecc14610206578063715018a614610224578063724fa7e41461022e57610121565b8063117a5b9014610126578063131dbd091461016057806323c96c011461017c57806331ead8431461019a575b600080fd5b610140600480360381019061013b91906124d3565b610380565b6040516101579b9a999897969594939291906125fb565b60405180910390f35b61017a600480360381019061017591906124d3565b6106cc565b005b6101846106de565b6040516101919190612728565b60405180910390f35b6101a2610704565b6040516101af9190612743565b60405180910390f35b6101c061070a565b6040516101cd9190612743565b60405180910390f35b6101f060048036038101906101eb919061278a565b610710565b6040516101fd91906127ca565b60405180910390f35b61020e61073f565b60405161021b9190612743565b60405180910390f35b61022c610745565b005b6102486004803603810190610243919061291a565b610759565b005b610252610bc2565b60405161025f9190612743565b60405180910390f35b610270610bc8565b60405161027d9190612a21565b60405180910390f35b6102a0600480360381019061029b9190612af2565b610bf1565b005b6102bc60048036038101906102b791906124d3565b611342565b005b6102d860048036038101906102d391906124d3565b6113a4565b6040516102e59190612cf5565b60405180910390f35b61030860048036038101906103039190612d43565b6117ac565b005b610312611e45565b60405161031f9190612f50565b60405180910390f35b610330612229565b60405161033d9190612743565b60405180910390f35b61034e61222f565b60405161035b9190612743565b60405180910390f35b61037e60048036038101906103799190612f72565b61223c565b005b6007818154811061039057600080fd5b90600052602060002090600a02016000915090508060000180546103b390612fce565b80601f01602080910402602001604051908101604052809291908181526020018280546103df90612fce565b801561042c5780601f106104015761010080835404028352916020019161042c565b820191906000526020600020905b81548152906001019060200180831161040f57829003601f168201915b50505050509080600101805461044190612fce565b80601f016020809104026020016040519081016040528092919081815260200182805461046d90612fce565b80156104ba5780601f1061048f576101008083540402835291602001916104ba565b820191906000526020600020905b81548152906001019060200180831161049d57829003601f168201915b5050505050908060020180546104cf90612fce565b80601f01602080910402602001604051908101604052809291908181526020018280546104fb90612fce565b80156105485780601f1061051d57610100808354040283529160200191610548565b820191906000526020600020905b81548152906001019060200180831161052b57829003601f168201915b50505050509080600301805461055d90612fce565b80601f016020809104026020016040519081016040528092919081815260200182805461058990612fce565b80156105d65780601f106105ab576101008083540402835291602001916105d6565b820191906000526020600020905b8154815290600101906020018083116105b957829003601f168201915b5050505050908060040180546105eb90612fce565b80601f016020809104026020016040519081016040528092919081815260200182805461061790612fce565b80156106645780601f1061063957610100808354040283529160200191610664565b820191906000526020600020905b81548152906001019060200180831161064757829003601f168201915b5050505050908060050160009054906101000a900473ffffffffffffffffffffffffffffffffffffffff16908060060154908060070154908060080154908060090160009054906101000a900460ff16908060090160019054906101000a900460ff1690508b565b6106d46122c2565b8060028190555050565b600160009054906101000a900473ffffffffffffffffffffffffffffffffffffffff1681565b60035481565b60065481565b60086020528160005260406000206020528060005260406000206000915091509054906101000a900460ff1681565b60025481565b61074d6122c2565b6107576000612349565b565b600085511161079d576040517f08c379a00000000000000000000000000000000000000000000000000000000081526004016107949061304b565b60405180910390fd5b60008451116107e1576040517f08c379a00000000000000000000000000000000000000000000000000000000081526004016107d8906130b7565b60405180910390fd5b6000835111610825576040517f08c379a000000000000000000000000000000000000000000000000000000000815260040161081c90613123565b60405180910390fd5b6000825111610869576040517f08c379a00000000000000000000000000000000000000000000000000000000081526004016108609061318f565b60405180910390fd5b60008151116108ad576040517f08c379a00000000000000000000000000000000000000000000000000000000081526004016108a4906131fb565b60405180910390fd5b6000600160009054906101000a900473ffffffffffffffffffffffffffffffffffffffff1673ffffffffffffffffffffffffffffffffffffffff166323b872dd33600160009054906101000a900473ffffffffffffffffffffffffffffffffffffffff166002546040518463ffffffff1660e01b81526004016109329392919061321b565b6020604051808303816000875af1158015610951573d6000803e3d6000fd5b505050506040513d601f19601f820116820180604052508101906109759190613267565b9050806109b7576040517f08c379a00000000000000000000000000000000000000000000000000000000081526004016109ae906132e0565b60405180910390fd5b60076040518061016001604052808881526020018781526020018681526020018581526020018481526020013373ffffffffffffffffffffffffffffffffffffffff1681526020016000815260200160008152602001600081526020016000151581526020016000151581525090806001815401808255809150506001900390600052602060002090600a02016000909190919091506000820151816000019081610a6291906134a2565b506020820151816001019081610a7891906134a2565b506040820151816002019081610a8e91906134a2565b506060820151816003019081610aa491906134a2565b506080820151816004019081610aba91906134a2565b5060a08201518160050160006101000a81548173ffffffffffffffffffffffffffffffffffffffff021916908373ffffffffffffffffffffffffffffffffffffffff16021790555060c0820151816006015560e0820151816007015561010082015181600801556101208201518160090160006101000a81548160ff0219169083151502179055506101408201518160090160016101000a81548160ff02191690831515021790555050503373ffffffffffffffffffffffffffffffffffffffff166001600780549050610b8e91906135a3565b7f0733c2d69088f55924a4f61f7f435789cd29031b10b0d6f864d6e0cc293d534460405160405180910390a3505050505050565b60055481565b60008060009054906101000a900473ffffffffffffffffffffffffffffffffffffffff16905090565b818190508484905014610c39576040517f08c379a0000000000000000000000000000000000000000000000000000000008152600401610c3090613623565b60405180910390fd5b6000600160009054906101000a900473ffffffffffffffffffffffffffffffffffffffff1673ffffffffffffffffffffffffffffffffffffffff166370a08231336040518263ffffffff1660e01b8152600401610c969190612a21565b602060405180830381865afa158015610cb3573d6000803e3d6000fd5b505050506040513d601f19601f82011682018060405250810190610cd79190613658565b905060008190506000600654600454610cf091906135a3565b905060005b87879050811015611338576000888883818110610d1557610d14613685565b5b9050602002013590506000878784818110610d3357610d32613685565b5b9050602002016020810190610d4891906136b4565b90506007805490508210610d91576040517f08c379a0000000000000000000000000000000000000000000000000000000008152600401610d889061372d565b60405180910390fd5b60078281548110610da557610da4613685565b5b90600052602060002090600a020160090160009054906101000a900460ff16158015610e01575060078281548110610de057610ddf613685565b5b90600052602060002090600a020160090160019054906101000a900460ff16155b610e40576040517f08c379a0000000000000000000000000000000000000000000000000000000008152600401610e3790613799565b60405180910390fd5b600860003373ffffffffffffffffffffffffffffffffffffffff1673ffffffffffffffffffffffffffffffffffffffff168152602001908152602001600020600083815260200190815260200160002060009054906101000a900460ff1615610ede576040517f08c379a0000000000000000000000000000000000000000000000000000000008152600401610ed590613805565b60405180910390fd5b8015610f25578460078381548110610ef957610ef8613685565b5b90600052602060002090600a02016006016000828254610f199190613825565b92505081905550610f62565b8460078381548110610f3a57610f39613685565b5b90600052602060002090600a02016007016000828254610f5a9190613825565b925050819055505b8460078381548110610f7757610f76613685565b5b90600052602060002090600a02016008016000828254610f979190613825565b925050819055506001600860003373ffffffffffffffffffffffffffffffffffffffff1673ffffffffffffffffffffffffffffffffffffffff168152602001908152602001600020600084815260200190815260200160002060006101000a81548160ff0219169083151502179055503373ffffffffffffffffffffffffffffffffffffffff16827f3e7a211f47b0ccba418aaf0b2a6d1c11cba487c63728c5a614bedd21832b6d218388604051611050929190613859565b60405180910390a3600160009054906101000a900473ffffffffffffffffffffffffffffffffffffffff1673ffffffffffffffffffffffffffffffffffffffff166304ebda063360006040518363ffffffff1660e01b81526004016110b6929190613882565b600060405180830381600087803b1580156110d057600080fd5b505af11580156110e4573d6000803e3d6000fd5b50505050600454600783815481106110ff576110fe613685565b5b90600052602060002090600a02016008015410611323576006546007838154811061112d5761112c613685565b5b90600052602060002090600a020160060154106112895760016007838154811061115a57611159613685565b5b90600052602060002090600a020160090160006101000a81548160ff021916908315150217905550817f83b0550cf054c6b9b5e8247fbc99901fd6b1e61830e2d9644620ad79e5bcf1e360405160405180910390a2600160009054906101000a900473ffffffffffffffffffffffffffffffffffffffff1673ffffffffffffffffffffffffffffffffffffffff166304ebda066007848154811061120157611200613685565b5b90600052602060002090600a020160050160009054906101000a900473ffffffffffffffffffffffffffffffffffffffff1660016040518363ffffffff1660e01b8152600401611252929190613882565b600060405180830381600087803b15801561126c57600080fd5b505af1158015611280573d6000803e3d6000fd5b50505050611322565b836007838154811061129e5761129d613685565b5b90600052602060002090600a02016007015410611321576001600783815481106112cb576112ca613685565b5b90600052602060002090600a020160090160016101000a81548160ff021916908315150217905550817f2670491584f4de8678fbfd5beeb48e11238e1c9ba1b811981068cf85d9b21d7e60405160405180910390a25b5b5b50508080611330906138ab565b915050610cf5565b5050505050505050565b61134a6122c2565b60008111801561135b575060648111155b61139a576040517f08c379a00000000000000000000000000000000000000000000000000000000081526004016113919061393f565b60405180910390fd5b8060058190555050565b6113ac612415565b60078054905082106113f3576040517f08c379a00000000000000000000000000000000000000000000000000000000081526004016113ea9061372d565b60405180910390fd5b6007828154811061140757611406613685565b5b90600052602060002090600a02016040518061016001604052908160008201805461143190612fce565b80601f016020809104026020016040519081016040528092919081815260200182805461145d90612fce565b80156114aa5780601f1061147f576101008083540402835291602001916114aa565b820191906000526020600020905b81548152906001019060200180831161148d57829003601f168201915b505050505081526020016001820180546114c390612fce565b80601f01602080910402602001604051908101604052809291908181526020018280546114ef90612fce565b801561153c5780601f106115115761010080835404028352916020019161153c565b820191906000526020600020905b81548152906001019060200180831161151f57829003601f168201915b5050505050815260200160028201805461155590612fce565b80601f016020809104026020016040519081016040528092919081815260200182805461158190612fce565b80156115ce5780601f106115a3576101008083540402835291602001916115ce565b820191906000526020600020905b8154815290600101906020018083116115b157829003601f168201915b505050505081526020016003820180546115e790612fce565b80601f016020809104026020016040519081016040528092919081815260200182805461161390612fce565b80156116605780601f1061163557610100808354040283529160200191611660565b820191906000526020600020905b81548152906001019060200180831161164357829003601f168201915b5050505050815260200160048201805461167990612fce565b80601f01602080910402602001604051908101604052809291908181526020018280546116a590612fce565b80156116f25780601f106116c7576101008083540402835291602001916116f2565b820191906000526020600020905b8154815290600101906020018083116116d557829003601f168201915b505050505081526020016005820160009054906101000a900473ffffffffffffffffffffffffffffffffffffffff1673ffffffffffffffffffffffffffffffffffffffff1673ffffffffffffffffffffffffffffffffffffffff1681526020016006820154815260200160078201548152602001600882015481526020016009820160009054906101000a900460ff161515151581526020016009820160019054906101000a900460ff1615151515815250509050919050565b60078054905082106117f3576040517f08c379a00000000000000000000000000000000000000000000000000000000081526004016117ea9061372d565b60405180910390fd5b6007828154811061180757611806613685565b5b90600052602060002090600a020160090160009054906101000a900460ff1615801561186357506007828154811061184257611841613685565b5b90600052602060002090600a020160090160019054906101000a900460ff16155b6118a2576040517f08c379a000000000000000000000000000000000000000000000000000000000815260040161189990613799565b60405180910390fd5b600860003373ffffffffffffffffffffffffffffffffffffffff1673ffffffffffffffffffffffffffffffffffffffff168152602001908152602001600020600083815260200190815260200160002060009054906101000a900460ff1615611940576040517f08c379a000000000000000000000000000000000000000000000000000000000815260040161193790613805565b60405180910390fd5b6000600160009054906101000a900473ffffffffffffffffffffffffffffffffffffffff1673ffffffffffffffffffffffffffffffffffffffff166370a08231336040518263ffffffff1660e01b815260040161199d9190612a21565b602060405180830381865afa1580156119ba573d6000803e3d6000fd5b505050506040513d601f19601f820116820180604052508101906119de9190613658565b9050600081905060006006546004546119f791906135a3565b90508315611a40578160078681548110611a1457611a13613685565b5b90600052602060002090600a02016006016000828254611a349190613825565b92505081905550611a7d565b8160078681548110611a5557611a54613685565b5b90600052602060002090600a02016007016000828254611a759190613825565b925050819055505b8160078681548110611a9257611a91613685565b5b90600052602060002090600a02016008016000828254611ab29190613825565b925050819055506001600860003373ffffffffffffffffffffffffffffffffffffffff1673ffffffffffffffffffffffffffffffffffffffff168152602001908152602001600020600087815260200190815260200160002060006101000a81548160ff0219169083151502179055503373ffffffffffffffffffffffffffffffffffffffff16857f3e7a211f47b0ccba418aaf0b2a6d1c11cba487c63728c5a614bedd21832b6d218685604051611b6b929190613859565b60405180910390a3600160009054906101000a900473ffffffffffffffffffffffffffffffffffffffff1673ffffffffffffffffffffffffffffffffffffffff166304ebda063360006040518363ffffffff1660e01b8152600401611bd1929190613882565b600060405180830381600087803b158015611beb57600080fd5b505af1158015611bff573d6000803e3d6000fd5b5050505060045460078681548110611c1a57611c19613685565b5b90600052602060002090600a02016008015410611e3e5760065460078681548110611c4857611c47613685565b5b90600052602060002090600a02016006015410611da457600160078681548110611c7557611c74613685565b5b90600052602060002090600a020160090160006101000a81548160ff021916908315150217905550847f83b0550cf054c6b9b5e8247fbc99901fd6b1e61830e2d9644620ad79e5bcf1e360405160405180910390a2600160009054906101000a900473ffffffffffffffffffffffffffffffffffffffff1673ffffffffffffffffffffffffffffffffffffffff166304ebda0660078781548110611d1c57611d1b613685565b5b90600052602060002090600a020160050160009054906101000a900473ffffffffffffffffffffffffffffffffffffffff1660016040518363ffffffff1660e01b8152600401611d6d929190613882565b600060405180830381600087803b158015611d8757600080fd5b505af1158015611d9b573d6000803e3d6000fd5b50505050611e3d565b8060078681548110611db957611db8613685565b5b90600052602060002090600a02016007015410611e3c57600160078681548110611de657611de5613685565b5b90600052602060002090600a020160090160016101000a81548160ff021916908315150217905550847f2670491584f4de8678fbfd5beeb48e11238e1c9ba1b811981068cf85d9b21d7e60405160405180910390a25b5b5b5050505050565b60606007805480602002602001604051908101604052809291908181526020016000905b8282101561222057838290600052602060002090600a020160405180610160016040529081600082018054611e9d90612fce565b80601f0160208091040260200160405190810160405280929190818152602001828054611ec990612fce565b8015611f165780601f10611eeb57610100808354040283529160200191611f16565b820191906000526020600020905b815481529060010190602001808311611ef957829003601f168201915b50505050508152602001600182018054611f2f90612fce565b80601f0160208091040260200160405190810160405280929190818152602001828054611f5b90612fce565b8015611fa85780601f10611f7d57610100808354040283529160200191611fa8565b820191906000526020600020905b815481529060010190602001808311611f8b57829003601f168201915b50505050508152602001600282018054611fc190612fce565b80601f0160208091040260200160405190810160405280929190818152602001828054611fed90612fce565b801561203a5780601f1061200f5761010080835404028352916020019161203a565b820191906000526020600020905b81548152906001019060200180831161201d57829003601f168201915b5050505050815260200160038201805461205390612fce565b80601f016020809104026020016040519081016040528092919081815260200182805461207f90612fce565b80156120cc5780601f106120a1576101008083540402835291602001916120cc565b820191906000526020600020905b8154815290600101906020018083116120af57829003601f168201915b505050505081526020016004820180546120e590612fce565b80601f016020809104026020016040519081016040528092919081815260200182805461211190612fce565b801561215e5780601f106121335761010080835404028352916020019161215e565b820191906000526020600020905b81548152906001019060200180831161214157829003601f168201915b505050505081526020016005820160009054906101000a900473ffffffffffffffffffffffffffffffffffffffff1673ffffffffffffffffffffffffffffffffffffffff1673ffffffffffffffffffffffffffffffffffffffff1681526020016006820154815260200160078201548152602001600882015481526020016009820160009054906101000a900460ff161515151581526020016009820160019054906101000a900460ff16151515158152505081526020019060010190611e69565b50505050905090565b60045481565b6000600780549050905090565b6122446122c2565b600073ffffffffffffffffffffffffffffffffffffffff168173ffffffffffffffffffffffffffffffffffffffff16036122b65760006040517f1e4fbdf70000000000000000000000000000000000000000000000000000000081526004016122ad9190612a21565b60405180910390fd5b6122bf81612349565b50565b6122ca61240d565b73ffffffffffffffffffffffffffffffffffffffff166122e8610bc8565b73ffffffffffffffffffffffffffffffffffffffff16146123475761230b61240d565b6040517f118cdaa700000000000000000000000000000000000000000000000000000000815260040161233e9190612a21565b60405180910390fd5b565b60008060009054906101000a900473ffffffffffffffffffffffffffffffffffffffff169050816000806101000a81548173ffffffffffffffffffffffffffffffffffffffff021916908373ffffffffffffffffffffffffffffffffffffffff1602179055508173ffffffffffffffffffffffffffffffffffffffff168173ffffffffffffffffffffffffffffffffffffffff167f8be0079c531659141344cd1fd0a4f28419497f9722a3daafe3b4186f6b6457e060405160405180910390a35050565b600033905090565b6040518061016001604052806060815260200160608152602001606081526020016060815260200160608152602001600073ffffffffffffffffffffffffffffffffffffffff1681526020016000815260200160008152602001600081526020016000151581526020016000151581525090565b6000604051905090565b600080fd5b600080fd5b6000819050919050565b6124b08161249d565b81146124bb57600080fd5b50565b6000813590506124cd816124a7565b92915050565b6000602082840312156124e9576124e8612493565b5b60006124f7848285016124be565b91505092915050565b600081519050919050565b600082825260208201905092915050565b60005b8381101561253a57808201518184015260208101905061251f565b60008484015250505050565b6000601f19601f8301169050919050565b600061256282612500565b61256c818561250b565b935061257c81856020860161251c565b61258581612546565b840191505092915050565b600073ffffffffffffffffffffffffffffffffffffffff82169050919050565b60006125bb82612590565b9050919050565b6125cb816125b0565b82525050565b6125da8161249d565b82525050565b60008115159050919050565b6125f5816125e0565b82525050565b6000610160820190508181036000830152612616818e612557565b9050818103602083015261262a818d612557565b9050818103604083015261263e818c612557565b90508181036060830152612652818b612557565b90508181036080830152612666818a612557565b905061267560a08301896125c2565b61268260c08301886125d1565b61268f60e08301876125d1565b61269d6101008301866125d1565b6126ab6101208301856125ec565b6126b96101408301846125ec565b9c9b505050505050505050505050565b6000819050919050565b60006126ee6126e96126e484612590565b6126c9565b612590565b9050919050565b6000612700826126d3565b9050919050565b6000612712826126f5565b9050919050565b61272281612707565b82525050565b600060208201905061273d6000830184612719565b92915050565b600060208201905061275860008301846125d1565b92915050565b612767816125b0565b811461277257600080fd5b50565b6000813590506127848161275e565b92915050565b600080604083850312156127a1576127a0612493565b5b60006127af85828601612775565b92505060206127c0858286016124be565b9150509250929050565b60006020820190506127df60008301846125ec565b92915050565b600080fd5b600080fd5b7f4e487b7100000000000000000000000000000000000000000000000000000000600052604160045260246000fd5b61282782612546565b810181811067ffffffffffffffff82111715612846576128456127ef565b5b80604052505050565b6000612859612489565b9050612865828261281e565b919050565b600067ffffffffffffffff821115612885576128846127ef565b5b61288e82612546565b9050602081019050919050565b82818337600083830152505050565b60006128bd6128b88461286a565b61284f565b9050828152602081018484840111156128d9576128d86127ea565b5b6128e484828561289b565b509392505050565b600082601f830112612901576129006127e5565b5b81356129118482602086016128aa565b91505092915050565b600080600080600060a0868803121561293657612935612493565b5b600086013567ffffffffffffffff81111561295457612953612498565b5b612960888289016128ec565b955050602086013567ffffffffffffffff81111561298157612980612498565b5b61298d888289016128ec565b945050604086013567ffffffffffffffff8111156129ae576129ad612498565b5b6129ba888289016128ec565b935050606086013567ffffffffffffffff8111156129db576129da612498565b5b6129e7888289016128ec565b925050608086013567ffffffffffffffff811115612a0857612a07612498565b5b612a14888289016128ec565b9150509295509295909350565b6000602082019050612a3660008301846125c2565b92915050565b600080fd5b600080fd5b60008083601f840112612a5c57612a5b6127e5565b5b8235905067ffffffffffffffff811115612a7957612a78612a3c565b5b602083019150836020820283011115612a9557612a94612a41565b5b9250929050565b60008083601f840112612ab257612ab16127e5565b5b8235905067ffffffffffffffff811115612acf57612ace612a3c565b5b602083019150836020820283011115612aeb57612aea612a41565b5b9250929050565b60008060008060408587031215612b0c57612b0b612493565b5b600085013567ffffffffffffffff811115612b2a57612b29612498565b5b612b3687828801612a46565b9450945050602085013567ffffffffffffffff811115612b5957612b58612498565b5b612b6587828801612a9c565b925092505092959194509250565b600082825260208201905092915050565b6000612b8f82612500565b612b998185612b73565b9350612ba981856020860161251c565b612bb281612546565b840191505092915050565b612bc6816125b0565b82525050565b612bd58161249d565b82525050565b612be4816125e0565b82525050565b6000610160830160008301518482036000860152612c088282612b84565b91505060208301518482036020860152612c228282612b84565b91505060408301518482036040860152612c3c8282612b84565b91505060608301518482036060860152612c568282612b84565b91505060808301518482036080860152612c708282612b84565b91505060a0830151612c8560a0860182612bbd565b5060c0830151612c9860c0860182612bcc565b5060e0830151612cab60e0860182612bcc565b50610100830151612cc0610100860182612bcc565b50610120830151612cd5610120860182612bdb565b50610140830151612cea610140860182612bdb565b508091505092915050565b60006020820190508181036000830152612d0f8184612bea565b905092915050565b612d20816125e0565b8114612d2b57600080fd5b50565b600081359050612d3d81612d17565b92915050565b60008060408385031215612d5a57612d59612493565b5b6000612d68858286016124be565b9250506020612d7985828601612d2e565b9150509250929050565b600081519050919050565b600082825260208201905092915050565b6000819050602082019050919050565b6000610160830160008301518482036000860152612dcd8282612b84565b91505060208301518482036020860152612de78282612b84565b91505060408301518482036040860152612e018282612b84565b91505060608301518482036060860152612e1b8282612b84565b91505060808301518482036080860152612e358282612b84565b91505060a0830151612e4a60a0860182612bbd565b5060c0830151612e5d60c0860182612bcc565b5060e0830151612e7060e0860182612bcc565b50610100830151612e85610100860182612bcc565b50610120830151612e9a610120860182612bdb565b50610140830151612eaf610140860182612bdb565b508091505092915050565b6000612ec68383612daf565b905092915050565b6000602082019050919050565b6000612ee682612d83565b612ef08185612d8e565b935083602082028501612f0285612d9f565b8060005b85811015612f3e5784840389528151612f1f8582612eba565b9450612f2a83612ece565b925060208a01995050600181019050612f06565b50829750879550505050505092915050565b60006020820190508181036000830152612f6a8184612edb565b905092915050565b600060208284031215612f8857612f87612493565b5b6000612f9684828501612775565b91505092915050565b7f4e487b7100000000000000000000000000000000000000000000000000000000600052602260045260246000fd5b60006002820490506001821680612fe657607f821691505b602082108103612ff957612ff8612f9f565b5b50919050565b7f5469746c65206973207265717569726564000000000000000000000000000000600082015250565b600061303560118361250b565b915061304082612fff565b602082019050919050565b6000602082019050818103600083015261306481613028565b9050919050565b7f4465736372697074696f6e206973207265717569726564000000000000000000600082015250565b60006130a160178361250b565b91506130ac8261306b565b602082019050919050565b600060208201905081810360008301526130d081613094565b9050919050565b7f43617465676f7279206973207265717569726564000000000000000000000000600082015250565b600061310d60148361250b565b9150613118826130d7565b602082019050919050565b6000602082019050818103600083015261313c81613100565b9050919050565b7f496d6167652055524c2069732072657175697265640000000000000000000000600082015250565b600061317960158361250b565b915061318482613143565b602082019050919050565b600060208201905081810360008301526131a88161316c565b9050919050565b7f47616d652055524c206973207265717569726564000000000000000000000000600082015250565b60006131e560148361250b565b91506131f0826131af565b602082019050919050565b60006020820190508181036000830152613214816131d8565b9050919050565b600060608201905061323060008301866125c2565b61323d60208301856125c2565b61324a60408301846125d1565b949350505050565b60008151905061326181612d17565b92915050565b60006020828403121561327d5761327c612493565b5b600061328b84828501613252565b91505092915050565b7f4c697374696e6720666565207472616e73666572206661696c65640000000000600082015250565b60006132ca601b8361250b565b91506132d582613294565b602082019050919050565b600060208201905081810360008301526132f9816132bd565b9050919050565b60008190508160005260206000209050919050565b60006020601f8301049050919050565b600082821b905092915050565b6000600883026133627fffffffffffffffffffffffffffffffffffffffffffffffffffffffffffffffff82613325565b61336c8683613325565b95508019841693508086168417925050509392505050565b600061339f61339a6133958461249d565b6126c9565b61249d565b9050919050565b6000819050919050565b6133b983613384565b6133cd6133c5826133a6565b848454613332565b825550505050565b600090565b6133e26133d5565b6133ed8184846133b0565b505050565b5b81811015613411576134066000826133da565b6001810190506133f3565b5050565b601f8211156134565761342781613300565b61343084613315565b8101602085101561343f578190505b61345361344b85613315565b8301826133f2565b50505b505050565b600082821c905092915050565b60006134796000198460080261345b565b1980831691505092915050565b60006134928383613468565b9150826002028217905092915050565b6134ab82612500565b67ffffffffffffffff8111156134c4576134c36127ef565b5b6134ce8254612fce565b6134d9828285613415565b600060209050601f83116001811461350c57600084156134fa578287015190505b6135048582613486565b86555061356c565b601f19841661351a86613300565b60005b828110156135425784890151825560018201915060208501945060208101905061351d565b8683101561355f578489015161355b601f891682613468565b8355505b6001600288020188555050505b505050505050565b7f4e487b7100000000000000000000000000000000000000000000000000000000600052601160045260246000fd5b60006135ae8261249d565b91506135b98361249d565b92508282039050818111156135d1576135d0613574565b5b92915050565b7f4d69736d61746368656420696e707574206c656e677468730000000000000000600082015250565b600061360d60188361250b565b9150613618826135d7565b602082019050919050565b6000602082019050818103600083015261363c81613600565b9050919050565b600081519050613652816124a7565b92915050565b60006020828403121561366e5761366d612493565b5b600061367c84828501613643565b91505092915050565b7f4e487b7100000000000000000000000000000000000000000000000000000000600052603260045260246000fd5b6000602082840312156136ca576136c9612493565b5b60006136d884828501612d2e565b91505092915050565b7f496e76616c69642067616d652049440000000000000000000000000000000000600082015250565b6000613717600f8361250b565b9150613722826136e1565b602082019050919050565b600060208201905081810360008301526137468161370a565b9050919050565b7f566f74696e672068617320656e64656420666f7220746869732067616d650000600082015250565b6000613783601e8361250b565b915061378e8261374d565b602082019050919050565b600060208201905081810360008301526137b281613776565b9050919050565b7f416c726561647920766f74656420666f7220746869732067616d650000000000600082015250565b60006137ef601b8361250b565b91506137fa826137b9565b602082019050919050565b6000602082019050818103600083015261381e816137e2565b9050919050565b60006138308261249d565b915061383b8361249d565b925082820190508082111561385357613852613574565b5b92915050565b600060408201905061386e60008301856125ec565b61387b60208301846125d1565b9392505050565b600060408201905061389760008301856125c2565b6138a460208301846125ec565b9392505050565b60006138b68261249d565b91507fffffffffffffffffffffffffffffffffffffffffffffffffffffffffffffffff82036138e8576138e7613574565b5b600182019050919050565b7f496e76616c6964207468726573686f6c64000000000000000000000000000000600082015250565b600061392960118361250b565b9150613934826138f3565b602082019050919050565b600060208201905081810360008301526139588161391c565b905091905056fea2646970667358221220861099a34010a7513116faff6e88c01f0fb477945a12ff196d1a5456541262bd64736f6c63430008140033",
  "linkReferences": {},
  "deployedLinkReferences": {}
}